:020000040800F2
:1000000000280020151500081D1100082311000804
:10001000291100082F110008351100080000000008
:100020000000000000000000000000003B1100087C
:100030004711000800000000531100085F1100087C
:100040005D1500085D1500085D1500085D150008C8
:100050005D1500085D1500085D1500085D150008B8
:100060005D1500085D1500085D1500085D150008A8
:100070005D1500085D1500085D1500085D15000898
:100080005D1500085D1500085D1500085D15000888
:100090005D1500085D1500085D1500085D15000878
:1000A0005D1500085D1500085D1500085D15000868
:1000B0006D1100085D150008000000005D150008C6
:1000C0005D15000800000000000000005D1500083C
:1000D000000000005D1500085D150008000000002C
:1000E0005D1500085D1500085D15000800000000A2
:1000F0000000000000000000000000000000000000
:0C01000000000000000000005FF808F1A3
:10010C0010B5054C237833B9044B13B10448AFF345
:10011C0000800123237010BD3C0000200000000073
:10012C008C2B000808B5034B1BB103490348AFF3F4
:10013C00008008BD00000000400000208C2B00084F
:10014C0080B483B000AF00237B602BE01A4A7B683D
:10015C00012142F82310194A7B68012142F823102F
:10016C00174A7B68012142F82310164A7B6801214B
:10017C0042F82310144A7B684FF4FA7142F82310AA
:10018C00124A7B68002142F82310114A7B68002137
:10019C0042F823100F4A7B68002142F823107B6839
:1001AC0001337B607B68092BD0DD00BF00BF0C37AF
:1001BC00BD4680BC704700BFC0000020E800002096
:1001CC008801002098000020100100206001002010
:1001DC00B00100203801002080B483B000AF7860FB
:1001EC00094A7B6852F82330012B06D1064A7B68FA
:1001FC00002142F82310012300E0002318460C379D
:10020C00BD4680BC704700BF3801002080B582B06D
:10021C0000AF00237B6012E0494A7B6852F8232030
:10022C0048497B6841F82320474A7B6852F82320D1
:10023C0043497B6841F823207B6801337B607B68F2
:10024C00092BE9DD0221414801F06EFC03461A46F8
:10025C003D4B1A6004213D4801F066FC03461A46EA
:10026C00394B5A600821394801F05EFC03461A46A6
:10027C00354B9A6000233B605AE0314A3B6852F898
:10028C00232031493B6851F823309A424DD12C4AF6
:10029C003B6852F823202B493B6851F823309A4293
:1002AC0043D1284A3B6852F8232029493B6851F82E
:1002BC0023309A4219D0234A3B6852F82320244910
:1002CC003B6841F82320224A3B6852F82330002B2C
:1002DC002BD1204A3B684FF4FA7142F823101E4A86
:1002EC003B68012142F823101FE01A4A3B6852F880
:1002FC0023305A1E17493B6841F82320154A3B68A6
:10030C0052F82330002B10D1124A3B684FF4FA718B
:10031C0042F823100E4A3B6852F82330002B04D1CC
:10032C000D4A3B68012142F823103B6801333B60C6
:10033C003B68092BA1DD00BF00BF0837BD4680BD5F
:10034C00E800002088010020C000002000080140C7
:10035C0098000020100100203801002080B500AF6B
:10036C00914B1B68013B0D2B00F2798101A252F8D5
:10037C0023F000BFB90300086B0600086B060008E9
:10038C006B0600086B0600086B0600086B0600087D
:10039C006B0600086B0600086B06000803040008D7
:1003AC009104000829050008D50500087E4B0B2296
:1003BC001A607E4B1B68013B7D4A13607D4B1B68AA
:1003CC00013B7D4A13607A4B1B68184600F004FC15
:1003DC00794B1B68184600F0DBFB744B1B684FF421
:1003EC007A7202FB03F3184600F046FD4FF47A7064
:1003FC0000F05EFD3CE100F0C3FE704B1B68012B6E
:10040C0010D1694B0C221A606D4B1B684FF47A7239
:10041C0002FB03F3184600F02FFD694B1B68013BF0
:10042C00634A1360674B1B68012B17D1604B1B6829
:10043C00184600F0D1FB604B1B68184600F0A8FB77
:10044C005B4B1B68013B5A4A13605B4B1B68013BBF
:10045C00594A13604FF47A7000F02AFD0020FFF720
:10046C00BBFE0346002B00F0FC80FA2000F058FD88
:10047C004D4B02221A6042F2107000F035FD01F073
:10048C001DF8EEE000F0A2FE4C4B1B68012B15D1C1
:10049C00454B0D221A60454B1B684FF47A7202FBD8
:1004AC0003F3184600F0E8FC424B1B68013B404A42
:1004BC0013603E4B1B68013B3F4A1360414B1B686A
:1004CC00012B17D13A4B1B68184600F085FB3A4BB1
:1004DC001B68184600F05CFB354B1B68013B344A2B
:1004EC001360354B1B68013B334A13604FF47A7031
:1004FC0000F0DEFC0020FFF76FFE0346002B00F03F
:10050C00B280FA2000F00CFD274B02221A6042F256
:10051C00107000F0E9FC00F0D1FFA4E000F07CFECC
:10052C00264B1B68012B10D11F4B0E221A60244B3B
:10053C001B684FF47A7202FB03F3184600F09CFC24
:10054C001F4B1B68013B1C4A13601E4B1B68012B85
:10055C0017D1174B1B68184600F03EFB164B1B6857
:10056C00184600F015FB124B1B68013B104A136038
:10057C00114B1B68013B104A13604FF47A7000F06A
:10058C0097FC0020FFF728FE0346002B6DD0FA20C5
:10059C0000F0C6FC044B02221A6042F2107000F00C
:1005AC00A3FC00F08BFF60E06C000020300000200A
:1005BC0058000020280000205C0000207000002063
:1005CC002C0000207400002000F04CFE294B1B680E
:1005DC00012B15D1284B0B221A60284B1B684FF4AA
:1005EC007A7202FB03F3184600F046FC234B1B689F
:1005FC00013B234A1360234B1B68013B224A1360C7
:10060C00224B1B68012B17D11D4B1B68184600F0A1
:10061C00E3FA1D4B1B68184600F0BAFA184B1B681E
:10062C00013B174A1360184B1B68013B164A1360B9
:10063C004FF47A7000F03CFC0020FFF7CDFD034630
:10064C00002B14D0FA2000F06BFC0B4B02221A602A
:10065C0042F2107000F048FC00F030FF07E000BFE1
:10066C0006E000BF04E000BF02E000BF00E000BFF6
:10067C0000BF80BD700000206C0000203000002006
:10068C0058000020280000205C000020740000208E
:10069C0080B500AFBA4B1B68023B152B00F264818E
:1006AC0001A252F823F000BF0D07000875090008DD
:1006BC007509000875090008750900087509000816
:1006CC007509000875090008750900087509000806
:1006DC0075090008750900087509000875090008F6
:1006EC0075090008750900087509000875090008E6
:1006FC00750900087D07000825080008CB080008CC
:10070C00A04B1B68184600F067FA002000F040FA76
:10071C009D4B1B68012B05D14FF4FA7000F000FCC7
:10072C0000F0ACFE0020FFF757FD0346002B00F055
:10073C001D81934B15221A60924B02221A60934B27
:10074C001B68934A1360934B1B68934A1360934B3B
:10075C001B68934A13608B4B1B68184600F03CFADD
:10076C008A4B1B68184600F013FA00F0A7FEFDE058
:10077C00854B1B68012B05D14FF4FA7000F0D0FBB0
:10078C0000F010FE0020FFF727FD0346002B21D0C0
:10079C007B4B16221A607B4B03221A607C4B1B6826
:1007AC00184600F0D5FD7C4B1B68184600F0DEFDAA
:1007BC007B4B1B68184600F0E7FD724B1B68184614
:1007CC0000F00AFA734B1B68184600F0E1F900F0D0
:1007DC0075FED2E00120FFF7FFFC0346002B07D08B
:1007EC0000F066FD694B1B68184600F0D1F9C4E0B7
:1007FC000220FFF7F1FC0346002B00F0B980604BA0
:10080C0002221A6042F2107000F06EFB00F056FEED
:10081C005C4B00221A60B0E05B4B1B68012B05D1CE
:10082C004FF4FA7000F07CFB00F0E0FD0020FFF7C5
:10083C00D3FC0346002B21D0514B17221A60514B8D
:10084C0004221A60524B1B68184600F081FD524B73
:10085C001B68184600F08AFD514B1B68184600F0C7
:10086C0093FD484B1B68184600F0B6F94B4B1B68C0
:10087C00184600F08DF900F021FE7EE00120FFF714
:10088C00ABFC0346002B07D000F042FD414B1B682C
:10089C00184600F07DF970E00220FFF79DFC03463E
:1008AC00002B67D0364B02221A6042F2107000F017
:1008BC001BFB00F003FE334B00221A605DE0324B51
:1008CC001B68012B05D14FF4FA7000F029FB00F0E6
:1008DC00B1FD0020FFF780FC0346002B23D0284BF2
:1008EC0002221A6042F2107000F0FEFA00F0E6FDEF
:1008FC00244B00221A60264B1B68184600F028FD7A
:10090C00254B1B68184600F031FD254B1B6818461B
:10091C0000F03AFD1B4B1B68184600F05DF90020F7
:10092C0000F036F929E00120FFF756FC0346002BB6
:10093C0007D000F0D5FC194B1B68184600F028F9BD
:10094C001BE00220FFF748FC0346002B14D00C4B95
:10095C0002221A6042F2107000F0C6FA00F0AEFDEE
:10096C00084B00221A6008E000BF06E000BF04E05C
:10097C0000BF02E000BF00E000BF00BF80BD00BFB1
:10098C006C000020000000207C00002028000020CB
:10099C00600000202C0000206400002030000020AB
:1009AC006800002080B500AF1D4B1B68022B1ED0C9
:1009BC00022B2EDC002B02D0012B04D029E0184B8B
:1009CC0001221A602AE00020FFF706FC0346002BE8
:1009DC0021D0134B02221A6042F2107000F084FAFC
:1009EC004FF4FA7000F09CFA00F068FD13E002205E
:1009FC00FFF7F2FB0346002B03D0094B01221A60D0
:100A0C000CE0084B1B68012B07D1054B01221A6027
:100A1C0004E000BF02E000BF00E000BF00BF80BDEB
:100A2C006C0000207800002080B500AF01224FF44C
:100A3C007051024801F08FF800BF80BD00080140E2
:100A4C0080B586B000AF7860144A07F1080307CA76
:100A5C0003C31A8000237B6118E001227B6902FA30
:100A6C0003F399B207F108027B6813441B781A460A
:100A7C007B6942FA03F3DBB203F00103DBB21A46E3
:100A8C00074801F068F87B6901337B617B69062BB1
:100A9C00E3DD00BF00BF1837BD4680BDA42B0008A6
:100AAC00000C014080B582B000AF7860064A7B68CC
:100ABC0052F823309BB200221946044801F04BF83F
:100ACC0000BF0837BD4680BD14000020000801405F
:100ADC0080B500AF01224FF480610B4801F03BF868
:100AEC0001224FF40061084801F035F801224FF45F
:100AFC008051054801F02FF801224FF400510248B3
:100B0C0001F029F800BF80BD0008014080B582B01B
:100B1C0000AF7860FFF788FFFFF7DAFF7B68032BE5
:100B2C002ED801A252F823F0450B0008570B0008F1
:100B3C00690B00087B0B0008144B1B681846FFF769
:100B4C007FFF0020FFF7AEFF1BE0104B5B681846E1
:100B5C00FFF776FF0120FFF7A5FF12E00B4B9B6818
:100B6C001846FFF76DFF0220FFF79CFF09E0074BCB
:100B7C00DB681846FFF764FF0320FFF793FF00E0E4
:100B8C0000BF00BF0837BD4680BD00BF0400002079
:100B9C0080B483B000AF78607B680D4A82FB03128F
:100BAC009210DB17D31A0B4A13607968084B83FB3E
:100BBC0001239A10CB17D21A13469B0013445B00E7
:100BCC00CA1A044B5A6000BF0C37BD4680BC704734
:100BDC00676666660400002080B483B000AF78605E
:100BEC007B680D4A82FB03129210DB17D31A0B4A57
:100BFC0093607968084B83FB01239A10CB17D21AA8
:100C0C0013469B0013445B00CA1A044BDA6000BF06
:100C1C000C37BD4680BC70476766666604000020D2
:100C2C0080B582B000AF00F095FC00F02BF800F01E
:100C3C0065F800F0AFF8114801F0EAFBFFF780FA15
:100C4C00FA2000F089F900237B60FFF787FBFFF7A0
:100C5C001FFDFFF7A7FE0A4B1B68012BF5D17B6824
:100C6C005A1C7A601846FFF751FF642000F074F9A3
:100C7C007B68032BE9DD00237B60E6E7D8010020CD
:100C8C008000002080B590B000AF07F11803282237
:100C9C000021184601F06CFF3B1D00221A605A60BF
:100CAC009A60DA601A610223BB610123BB621023D4
:100CBC00FB6200237B6307F11803184600F07CFFEE
:100CCC000346002B01D000F0D1F80F237B600023EA
:100CDC00BB600023FB6000233B6100237B613B1D59
:100CEC000021184601F0E8F90346002B01D000F072
:100CFC00BDF800BF4037BD4680BD000080B586B052
:100D0C0000AF07F1080300221A605A609A60DA609B
:100D1C003B4600221A605A601D4B4FF080421A600D
:100D2C001B4B41F63F725A60194B00229A60184BCC
:100D3C000922DA60164B00221A61154B00229A61C7
:100D4C00134801F015FB0346002B01D000F08EF880
:100D5C004FF48053BB6007F1080319460C4801F0AF
:100D6C0093FC0346002B01D000F080F800233B607D
:100D7C0000237B603B461946054801F06BFE034699
:100D8C00002B01D000F072F800BF1837BD4680BDB3
:100D9C00D801002080B586B000AF07F1080300220F
:100DAC001A605A609A60DA60274B9B69264A43F0B6
:100DBC0004039361244B9B6903F004037B607B6801
:100DCC00214B9B69204A43F0080393611E4B9B699E
:100DDC0003F008033B603B68002247F6F0711B48A8
:100DEC0000F0B9FE00227F21194800F0B4FE0E235A
:100DFC00BB600023FB6001233B6107F1080319462C
:100E0C00124800F017FD47F6F073BB600123FB603E
:100E1C0000233B6102237B6107F1080319460B4851
:100E2C0000F008FD7F23BB600123FB6000233B61C6
:100E3C0002237B6107F108031946054800F0FAFC10
:100E4C0000BF1837BD4680BD0010024000080140AD
:100E5C00000C014080B582B000AF786000F098F8CB
:100E6C00FFF7D4F900BF0837BD4680BD80B400AF92
:100E7C0072B600BFFEE7000080B483B000AF7860AC
:100E8C007B68084A82FB03129210DB17D31A064ABE
:100E9C001360064B00221A6000BF0C37BD4680BCA5
:100EAC00704700BF676666668400002070000020F3
:100EBC0080B483B000AF78607B68084A82FB031271
:100ECC009210DB17D31A064A1360064B00221A60E5
:100EDC0000BF0C37BD4680BC704700BF67666666B6
:100EEC00880000207400002080B483B000AF7860CC
:100EFC007B68084A82FB03129210DB17D31A064A4E
:100F0C001360064B00221A6000BF0C37BD4680BC34
:100F1C00704700BF676666668C0000207800002072
:100F2C0080B483B000AF78607B68084A82FB031200
:100F3C009210DB17D31A064A1360064B00221A6074
:100F4C0000BF0C37BD4680BC704700BF6766666645
:100F5C00900000207C00002080B483B000AF78604B
:100F6C007B68084A82FB03129210DB17D31A064ADD
:100F7C001360064B00221A6000BF0C37BD4680BCC4
:100F8C00704700BF676666669400002080000020F2
:100F9C0080B400AF294B1B68002B0BDD274B1B6863
:100FAC00013B264A1360254B1B68002B02D1244BB6
:100FBC0001221A60234B1B68002B0BDD214B1B6895
:100FCC00013B204A13601F4B1B68002B02D11E4BA8
:100FDC0001221A601D4B1B68002B0BDD1B4B1B6881
:100FEC00013B1A4A1360194B1B68002B02D1184B9A
:100FFC0001221A60174B1B68002B0BDD154B1B686D
:10100C00013B144A1360134B1B68002B02D1124B8B
:10101C0001221A60114B1B68002B0BDD0F4B1B6858
:10102C00013B0E4A13600D4B1B68002B02D10C4B7D
:10103C0001221A6000BFBD4680BC704784000020AE
:10104C007000002088000020740000208C0000201C
:10105C0078000020900000207C00002094000020EC
:10106C008000002080B485B000AF154B9B69144AFA
:10107C0043F001039361124B9B6903F00103BB60C6
:10108C00BB680F4BDB690E4A43F08053D3610C4BAA
:10109C00DB6903F080537B607B680A4B5B68FB6009
:1010AC00FB6823F0E063FB60FB6843F08063FB604C
:1010BC00044AFB68536000BF1437BD4680BC7047C0
:1010CC00001002400000014080B584B000AF786091
:1010DC007B681B68B3F1804F13D10C4BDB690B4A57
:1010EC0043F00103D361094BDB6903F00103FB609F
:1010FC00FB68002200211C2000F065FB1C2000F086
:10110C007EFB00BF1037BD4680BD00BF0010024003
:10111C0080B400AFFEE780B400AFFEE780B400AF50
:10112C00FEE780B400AFFEE780B400AFFEE780B40A
:10113C0000AF00BFBD4680BC704780B400AF00BF9D
:10114C00BD4680BC704780B400AF00BFBD4680BCBC
:10115C00704780B500AF00F043FA00BF80BD0000BF
:10116C0080B500AF024801F09FF900BF80BD00BF01
:10117C00D801002080B400AF00BFBD4680BC7047D2
:10118C0080B500AF002280210F4800F0E4FC002263
:10119C004FF480710C4800F0DEFC01224FF400711A
:1011AC00094800F0D8FC01221021074800F0D3FCBC
:1011BC0000222021044800F0CEFC002240210248ED
:1011CC0000F0C9FC00BF80BD0008014080B500AF35
:1011DC00002280210F4800F0BEFC01224FF48071E8
:1011EC000C4800F0B8FC00224FF40071094800F0E4
:1011FC00B2FC01221021074800F0ADFC0022202196
:10120C00044800F0A8FC00224021024800F0A3FC96
:10121C0000BF80BD0008014080B500AF01228021D5
:10122C000F4800F098FC00224FF480710C4800F03D
:10123C0092FC00224FF40071094800F08CFC002253
:10124C001021074800F087FC00222021044800F000
:10125C0082FC01224021024800F07DFC00BF80BDD1
:10126C000008014080B500AF012280210F4800F03A
:10127C0072FC00224FF480710C4800F06CFC0022D0
:10128C004FF40071094800F066FC00221021074859
:10129C0000F061FC01222021044800F05CFC0022DB
:1012AC004021024800F057FC00BF80BD00080140FF
:1012BC0080B400AF084B1B68622B09DC064B1B6823
:1012CC000133054A1360054B1B680133034A136055
:1012DC0000BFBD4680BC70472800002030000020B5
:1012EC0080B400AF084B1B68622B09DC074B1B68F2
:1012FC000133064A1360044B1B680133024A136026
:10130C0000BFBD4680BC7047280000203000002084
:10131C0080B400AF0B4B1B68622B0FDC0A4B1A68B6
:10132C000A4B1B689A4209DA074B1B680133064AC1
:10133C001360044B1B680133024A136000BFBD46A7
:10134C0080BC7047280000202C00002030000020BA
:10135C0080B483B000AF7860034A7B68136000BF31
:10136C000C37BD4680BC70472800002080B483B089
:10137C0000AF7860034A7B68136000BF0C37BD4632
:10138C0080BC70472C00002080B483B000AF786024
:10139C00034A7B68136000BF0C37BD4680BC7047A6
:1013AC003000002080B500AF10210F4800F0EBFB9F
:1013BC0080210D4800F0E7FB002240210A4800F094
:1013CC00CAFB00224FF40071074800F0C4FB002256
:1013DC002021054800F0BFFB00224FF48071024829
:1013EC0000F0B9FB00BF80BD0008014080B500AF24
:1013FC00002210210E4800F0AEFB002280210C4888
:10140C0000F0A9FB00224021094800F0A4FB0022B7
:10141C004FF40071064800F09EFB2021044800F0B8
:10142C00B2FB4FF48071024800F0ADFB00BF80BDF1
:10143C000008014080B500AF002210210E4800F0DA
:10144C008AFB002280210C4800F085FB40210A48D1
:10145C0000F099FB4FF40071074800F094FB002258
:10146C002021054800F077FB00224FF480710248E0
:10147C0000F071FB00BF80BD0008014080B500AFDB
:10148C0010210D4800F07FFB80210B4800F07BFB06
:10149C004021094800F077FB4FF40071064800F03A
:1014AC0072FB2021044800F06EFB4FF4807102485F
:1014BC0000F069FB00BF80BD0008014080B500AFA3
:1014CC00002280210F4800F046FB00224FF480716F
:1014DC000C4800F040FB00224FF40071094800F06A
:1014EC003AFB00221021074800F035FB0022202196
:1014FC00044800F030FB00224021024800F02BFB96
:10150C0000BF80BD00080140FFF734FE0B480C49BA
:10151C000C4A002302E0D458C4500433C4188C4243
:10152C00F9D3094A094C002301E013600432A242AA
:10153C00FBD301F0F9FAFFF773FB704700000020B2
:10154C003C000020DC2B00083C0000202402002082
:10155C00FEE7000080B500AF084B1B68074A43F05C
:10156C0010031360032000F023F90F2000F008F89B
:10157C00FFF778FD0023184680BD00BF0020024015
:10158C0080B582B000AF7860124B1A68124B1B7892
:10159C0019464FF47A73B3FBF1F3B2FBF3F318462D
:1015AC0000F03BF90346002B01D001230EE07B68D1
:1015BC000F2B0AD8002279684FF0FF3000F003F9A6
:1015CC00064A7B681360002300E0012318460837A5
:1015DC00BD4680BD240000203800002034000020CF
:1015EC0080B400AF054B1B781A46054B1B6813449F
:1015FC00034A136000BFBD4680BC70473800002012
:10160C002002002080B400AF024B1B681846BD4678
:10161C0080BC70472002002080B485B000AF786099
:10162C007B6803F00703FB600C4BDB68BB60BA689C
:10163C004FF6FF031340BB60FB681A02BB681343F1
:10164C0043F0BF6343F40033BB60044ABB68D36010
:10165C0000BF1437BD4680BC704700BF00ED00E0F2
:10166C0080B400AF044BDB681B0A03F00703184679
:10167C00BD4680BC704700BF00ED00E080B483B075
:10168C0000AF0346FB7197F90730002B0BDBFB799E
:10169C0003F01F02064997F907305B09012000FA95
:1016AC0002F241F8232000BF0C37BD4680BC7047C6
:1016BC0000E100E080B483B000AF03463960FB71F9
:1016CC0097F90730002B0ADB3B68DAB20C4997F923
:1016DC0007301201D2B20B4483F800230AE03B68B6
:1016EC00DAB20849FB7903F00F03043B1201D2B2C2
:1016FC000B441A7600BF0C37BD4680BC704700BF48
:10170C0000E100E000ED00E080B489B000AFF860CB
:10171C00B9607A60FB6803F00703FB61FB69C3F1F6
:10172C000703042B28BF0423BB61FB690433062B7E
:10173C0002D9FB69033B00E000237B614FF0FF32D1
:10174C00BB6902FA03F3DA43BB681A407B699A401F
:10175C004FF0FF317B6901FA03F3D9437B680B40EF
:10176C00134318462437BD4680BC704780B582B001
:10177C0000AF78607B68013BB3F1807F01D301231C
:10178C000FE00A4A7B68013B53600F214FF0FF309A
:10179C00FFF790FF054B00229A60044B07221A605A
:1017AC00002318460837BD4680BD00BF10E000E09E
:1017BC0080B582B000AF78607868FFF72DFF00BF6E
:1017CC000837BD4680BD80B586B000AF0346B96012
:1017DC007A60FB7300237B61FFF742FF78617A68C4
:1017EC00B9687869FFF790FF024697F90F301146F8
:1017FC001846FFF75FFF00BF1837BD4680BD80B5A8
:10180C0082B000AF0346FB7197F907301846FFF71B
:10181C0035FF00BF0837BD4680BD80B582B000AF34
:10182C0078607868FFF7A2FF034618460837BD4674
:10183C0080BD000080B48BB000AF786039600023AD
:10184C007B6200233B6248E101227B6A02FA03F3CC
:10185C00FB613B681B68FA691340BB61BA69FB69A1
:10186C009A4240F037813B685B68A34A93425ED052
:10187C00A14A934275D8A14A934258D09F4A9342A9
:10188C006FD89F4A934252D09D4A934269D89D4A41
:10189C0093424CD09B4A934263D89B4A934246D086
:1018AC00994A93425DD8122B2AD8122B59D801A2EF
:1018BC0052F823F03B1900081519000827190008E5
:1018CC00691900086F1900086F1900086F190008D2
:1018DC006F1900086F1900086F1900086F190008BC
:1018EC006F1900086F1900086F1900086F190008AC
:1018FC006F1900086F1900081D190008311900082C
:10190C00824A934213D02CE03B68DB683B6229E0AF
:10191C003B68DB6804333B6224E03B68DB680833DC
:10192C003B621FE03B68DB680C333B621AE03B68B0
:10193C009B68002B02D104233B6213E03B689B683D
:10194C00012B05D108233B627B68FA691A6109E017
:10195C0008233B627B68FA695A6103E000233B620F
:10196C0000E000BFBB69FF2B01D87B6801E07B68FE
:10197C0004337B61BB69FF2B02D87B6A9B0002E0BE
:10198C007B6A083B9B003B617B691A680F213B69B2
:10199C0001FA03F3DB431A40396A3B6901FA03F39A
:1019AC001A437B691A603B685B6803F08053002B19
:1019BC0000F09080564B9B69554A43F001039361AC
:1019CC00534B9B6903F00103BB60BB68514A7B6AB4
:1019DC009B08023352F82330FB607B6A03F003034D
:1019EC009B000F2202FA03F3DB43FA681340FB60FF
:1019FC007B68494A93420DD07B68484A934207D092
:101A0C007B68474A934201D1022304E0032302E09E
:101A1C00012300E000237A6A02F003029200934053
:101A2C00FA681343FB603B497B6A9B080233FA68F4
:101A3C0041F823203B685B6803F48013002B06D02D
:101A4C00384B9A683749BB6913438B6006E0354BBA
:101A5C009A68BB69DB43334913408B603B685B6816
:101A6C0003F40013002B06D02E4BDA682D49BB690A
:101A7C001343CB6006E02B4BDA68BB69DB43294987
:101A8C001340CB603B685B6803F40033002B06D03B
:101A9C00244B5A682349BB6913434B6006E0214B26
:101AAC005A68BB69DB431F4913404B603B685B685A
:101ABC0003F48033002B06D01A4B1A681949BB6902
:101ACC0013430B6006E0174B1A68BB69DB431549DF
:101ADC0013400B607B6A01337B623B681A687B6A3C
:101AEC0022FA03F3002B7FF4AFAE00BF00BF2C37FC
:101AFC00BD4680BC704700BF0000321000003110A2
:101B0C000000221000002110000012100000111023
:101B1C00001002400000014000080140000C014090
:101B2C00001001400004014080B485B000AF786023
:101B3C000B467B807B689A687B881340002B02D015
:101B4C000123FB7301E00023FB73FB7B1846143766
:101B5C00BD4680BC704780B483B000AF78600B4644
:101B6C007B8013467B707B78002B03D07A887B6854
:101B7C001A6103E07B881A047B681A6100BF0C377A
:101B8C00BD4680BC704780B485B000AF78600B4612
:101B9C007B807B68DB68FB607A88FB6813401A04E7
:101BAC00FB68D9437B880B401A437B681A6100BFE2
:101BBC001437BD4680BC704780B586B000AF7860E6
:101BCC007B68002B01D101236CE27B681B6803F05E
:101BDC000103002B00F08780924B5B6803F00C0331
:101BEC00042B0CD08F4B5B6803F00C03082B12D129
:101BFC008C4B5B6803F48033B3F5803F0BD1894B7E
:101C0C001B6803F40033002B6CD07B685B68002BE3
:101C1C0068D1012346E27B685B68B3F5803F06D14F
:101C2C00804B1B687F4A43F4803313602EE07B6843
:101C3C005B68002B0CD17B4B1B687A4A23F48033F6
:101C4C001360784B1B68774A23F4802313601DE0E4
:101C5C007B685B68B3F5A02F0CD1724B1B68714A83
:101C6C0043F4802313606F4B1B686E4A43F480333C
:101C7C0013600BE06B4B1B686A4A23F480331360D0
:101C8C00684B1B68674A23F4802313607B685B688E
:101C9C00002B13D0FFF7B6FC386108E0FFF7B2FC5D
:101CAC0002463B69D31A642B01D90323FAE15D4B3D
:101CBC001B6803F40033002BF0D014E0FFF7A2FCF8
:101CCC00386108E0FFF79EFC02463B69D31A642B8F
:101CDC0001D90323E6E1534B1B6803F40033002BBB
:101CEC00F0D100E000BF7B681B6803F00203002BFF
:101CFC0063D04C4B5B6803F00C03002B0BD0494BAF
:101D0C005B6803F00C03082B1CD1464B5B6803F497
:101D1C008033002B16D1434B1B6803F00203002BBE
:101D2C0005D07B681B69012B01D00123BAE13D4B27
:101D3C001B6823F0F8027B685B69DB0039491343AD
:101D4C000B603AE07B681B69002B20D0364B0122DC
:101D5C001A60FFF757FC386108E0FFF753FC0246A6
:101D6C003B69D31A022B01D903239BE12D4B1B6832
:101D7C0003F00203002BF0D02A4B1B6823F0F8026F
:101D8C007B685B69DB00274913430B6015E0264B2E
:101D9C0000221A60FFF736FC386108E0FFF732FCCE
:101DAC0002463B69D31A022B01D903237AE11D4B5E
:101DBC001B6803F00203002BF0D17B681B6803F057
:101DCC000803002B3AD07B689B69002B19D0174B6A
:101DDC0001221A60FFF716FC386108E0FFF712FCCD
:101DEC0002463B69D31A022B01D903235AE10D4B4E
:101DFC005B6A03F00203002BF0D0012000F09AFA8A
:101E0C001CE00A4B00221A60FFF7FCFB38610FE064
:101E1C00FFF7F8FB02463B69D31A022B08D90323C0
:101E2C0040E100BF001002400000424280044242E8
:101E3C009E4B5B6A03F00203002BE9D17B681B68A5
:101E4C0003F00403002B00F0A6800023FB75974BD6
:101E5C00DB6903F08053002B0DD1944BDB69934A63
:101E6C0043F08053D361914BDB6903F08053BB602B
:101E7C00BB680123FB758E4B1B6803F48073002B2E
:101E8C0018D18B4B1B688A4A43F480731360FFF79D
:101E9C00B9FB386108E0FFF7B5FB02463B69D31A82
:101EAC00642B01D90323FDE0814B1B6803F4807381
:101EBC00002BF0D07B68DB68012B06D17B4B1B6AB7
:101ECC007A4A43F0010313622DE07B68DB68002B38
:101EDC000CD1764B1B6A754A23F001031362734BCA
:101EEC001B6A724A23F0040313621CE07B68DB68F4
:101EFC00052B0CD16D4B1B6A6C4A43F00403136227
:101F0C006A4B1B6A694A43F0010313620BE0674B8F
:101F1C001B6A664A23F001031362644B1B6A634A13
:101F2C0023F0040313627B68DB68002B15D0FFF7EA
:101F3C0069FB38610AE0FFF765FB02463B69D31A7F
:101F4C0041F28832934201D90323ABE0574B1B6A11
:101F5C0003F00203002BEED014E0FFF753FB3861C3
:101F6C000AE0FFF74FFB02463B69D31A41F2883275
:101F7C00934201D9032395E04C4B1B6A03F00203F7
:101F8C00002BEED1FB7D012B05D1484BDB69474A79
:101F9C0023F08053D3617B68DB69002B00F08180D8
:101FAC00424B5B6803F00C03082B61D07B68DB6948
:101FBC00022B46D13F4B00221A60FFF723FB3861FE
:101FCC0008E0FFF71FFB02463B69D31A022B01D92D
:101FDC00032367E0354B1B6803F00073002BF0D133
:101FEC007B681B6AB3F5803F08D1304B5B6823F4E8
:101FFC0000327B689B682D4913434B602B4B5B680D
:10200C0023F474127B68196A7B685B6A0B4327495B
:10201C0013434B60274B01221A60FFF7F3FA386128
:10202C0008E0FFF7EFFA02463B69D31A022B01D9FD
:10203C00032337E01D4B1B6803F00073002BF0D01B
:10204C002FE01C4B00221A60FFF7DCFA386108E025
:10205C00FFF7D8FA02463B69D31A022B01D90323A6
:10206C0020E0124B1B6803F00073002BF0D118E03A
:10207C007B68DB69012B01D1012313E00B4B5B68FF
:10208C00FB60FB6803F480327B681B6A9A4206D1C2
:10209C00FB6803F470127B685B6A9A4201D00123DF
:1020AC0000E0002318461837BD4680BD00100240E2
:1020BC00007000406000424280B584B000AF786090
:1020CC0039607B68002B01D10123D0E06A4B1B687F
:1020DC0003F007033A689A4210D9674B1B6823F048
:1020EC00070265493B6813430B60634B1B6803F0A5
:1020FC0007033A689A4201D00123B8E07B681B6859
:10210C0003F00203002B20D07B681B6803F0040350
:10211C00002B05D0594B5B68584A43F4E06353607D
:10212C007B681B6803F00803002B05D0534B5B68DE
:10213C00524A43F460535360504B5B6823F0F002F7
:10214C007B689B684D4913434B607B681B6803F0AD
:10215C000103002B40D07B685B68012B07D1474BF8
:10216C001B6803F40033002B15D101237FE07B683F
:10217C005B68022B07D1414B1B6803F00073002BEB
:10218C0009D1012373E03D4B1B6803F00203002BC4
:10219C0001D101236BE0394B5B6823F003027B68B0
:1021AC005B68364913434B60FFF72CFAF8600AE082
:1021BC00FFF728FA0246FB68D31A41F288329342A1
:1021CC0001D9032353E02D4B5B6803F00C027B68B1
:1021DC005B689B009A42EBD1274B1B6803F007030B
:1021EC003A689A4210D2244B1B6823F0070222490A
:1021FC003B6813430B60204B1B6803F007033A68E2
:10220C009A4201D0012332E07B681B6803F004037F
:10221C00002B08D0194B5B6823F4E0627B68DB6809
:10222C00164913434B607B681B6803F00803002BB3
:10223C0009D0124B5B6823F460527B681B69DB008E
:10224C000E4913434B6000F021F802460B4B5B68C0
:10225C001B0903F00F030A49CB5C22FA03F3094A6A
:10226C001360094B1B681846FFF78AF900231846C0
:10227C001037BD4680BD00BF002002400010024058
:10228C00B02B0008240000203400002080B487B05C
:10229C0000AF0023FB600023BB6000237B610023A5
:1022AC007B6000233B611E4B5B68FB60FB6803F0AB
:1022BC000C03042B02D0082B03D027E0194B3B61F5
:1022CC0027E0FB689B0C03F00F03174AD35C7B6081
:1022DC00FB6803F48033002B10D0114B5B685B0C54
:1022EC0003F00103114AD35CBB607B680D4A02FB0F
:1022FC0003F2BB68B2FBF3F37B6104E07B680C4A2E
:10230C0002FB03F37B617B693B6102E0054B3B61A4
:10231C0000BF3B6918461C37BD4680BC704700BFE8
:10232C000010024000127A00C02B0008D02B0008CD
:10233C0000093D0080B485B000AF78600A4B1B6883
:10234C000A4AA2FB03235B0A7A6802FB03F3FB60D5
:10235C0000BFFB685A1EFA60002BF9D100BF00BF0A
:10236C001437BD4680BC704724000020D34D62104A
:10237C0080B582B000AF78607B68002B01D101235F
:10238C0041E07B6893F83D30DBB2002B06D17B68D3
:10239C00002283F83C207868FEF796FE7B680222C8
:1023AC0083F83D207B681A687B6804331946104615
:1023BC0000F056FA7B68012283F846207B680122E4
:1023CC0083F83E207B68012283F83F207B68012242
:1023DC0083F840207B68012283F841207B6801222E
:1023EC0083F842207B68012283F843207B6801221A
:1023FC0083F844207B68012283F845207B68012206
:10240C0083F83D20002318460837BD4680BD0000E8
:10241C0080B485B000AF78607B6893F83D30DBB258
:10242C00012B01D0012335E07B68022283F83D208B
:10243C007B681B68DA687B681B6842F00102DA6013
:10244C007B681B68164A934209D07B681B68B3F102
:10245C00804F04D07B681B68124A934211D17B6871
:10246C001B689B6803F00703FB60FB68062B10D00E
:10247C007B681B681A687B681B6842F001021A6053
:10248C0007E07B681B681A687B681B6842F00102D6
:10249C001A60002318461437BD4680BC704700BF35
:1024AC00002C01400004004080B584B000AF78607F
:1024BC007B681B68DB68FB607B681B681B69BB6007
:1024CC00BB6803F00203002B20D0FB6803F002036F
:1024DC00002B1BD07B681B686FF002021A617B68B3
:1024EC0001221A777B681B689B6903F00303002B9E
:1024FC0003D0786800F098F905E0786800F08BF963
:10250C00786800F09AF97B6800221A77BB6803F0B0
:10251C000403002B20D0FB6803F00403002B1BD01A
:10252C007B681B686FF004021A617B6802221A77C1
:10253C007B681B689B6903F44073002B03D078689D
:10254C0000F072F905E0786800F065F9786800F041
:10255C0074F97B6800221A77BB6803F00803002B20
:10256C0020D0FB6803F00803002B1BD07B681B6892
:10257C006FF008021A617B6804221A777B681B686B
:10258C00DB6903F00303002B03D0786800F04CF9EF
:10259C0005E0786800F03FF9786800F04EF97B6848
:1025AC0000221A77BB6803F01003002B20D0FB68C5
:1025BC0003F01003002B1BD07B681B686FF010021C
:1025CC001A617B6808221A777B681B68DB6903F445
:1025DC004073002B03D0786800F026F905E078688A
:1025EC0000F019F9786800F028F97B6800221A7756
:1025FC00BB6803F00103002B0CD0FB6803F0010354
:10260C00002B07D07B681B686FF001021A61786899
:10261C00FEF720FCBB6803F08003002B0CD0FB689A
:10262C0003F08003002B07D07B681B686FF08002DF
:10263C001A61786800F06FFABB6803F04003002B56
:10264C000CD0FB6803F04003002B07D07B681B68A1
:10265C006FF040021A61786800F0F8F8BB6803F07C
:10266C002003002B0CD0FB6803F02003002B07D0B9
:10267C007B681B686FF020021A61786800F042FAE0
:10268C0000BF1037BD4680BD80B584B000AF786008
:10269C0039600023FB737B6893F83C30012B01D12C
:1026AC000223B4E07B68012283F83C207B68022281
:1026BC0083F83D207B681B689B68BB60BB6823F07C
:1026CC007703BB60BB6823F47F43BB607B681B68EC
:1026DC00BA689A603B681B68B3F5005F3ED0B3F5EF
:1026EC00005F00F28780B3F5805F00F08680B3F561
:1026FC00805F7FD8702B1AD0702B7BD8602B50D07A
:10270C00602B77D8502B3CD0502B73D8402B58D003
:10271C00402B6FD8302B64D0302B6BD8202B60D053
:10272C00202B67D8002B5CD0102B5AD062E07B6832
:10273C0018683B6899683B685A683B68DB6800F02E
:10274C006AF97B681B689B68BB60BB6843F07703C6
:10275C00BB607B681B68BA689A604FE07B6818683E
:10276C003B6899683B685A683B68DB6800F053F932
:10277C007B681B689A687B681B6842F480429A608D
:10278C003CE07B6818683B6859683B68DB681A4614
:10279C0000F0CAF87B681B685021184600F021F93C
:1027AC002CE07B6818683B6859683B68DB681A4604
:1027BC0000F0E8F87B681B686021184600F011F9FE
:1027CC001CE07B6818683B6859683B68DB681A46F4
:1027DC0000F0AAF87B681B684021184600F001F94C
:1027EC000CE07B681A683B681B681946104600F0C1
:1027FC00F8F803E00123FB7300E000BF7B680122C3
:10280C0083F83D207B68002283F83C20FB7B184634
:10281C001037BD4680BD80B483B000AF786000BF78
:10282C000C37BD4680BC704780B483B000AF786075
:10283C0000BF0C37BD4680BC704780B483B000AF7E
:10284C00786000BF0C37BD4680BC704780B483B045
:10285C0000AF786000BF0C37BD4680BC70470000ED
:10286C0080B485B000AF786039607B681B68FB6012
:10287C007B682B4A934207D07B68B3F1804F03D01F
:10288C007B68284A934208D1FB6823F07003FB60F5
:10289C003B685B68FA681343FB607B68204A934291
:1028AC0007D07B68B3F1804F03D07B681D4A9342FD
:1028BC0008D1FB6823F44073FB603B68DB68FA6863
:1028CC001343FB60FB6823F080023B685B69134396
:1028DC00FB607B68FA681A603B689A687B68DA620E
:1028EC003B681A687B689A627B680D4A934203D1F5
:1028FC003B681A697B681A637B6801225A617B68A2
:10290C001B6903F00103002B05D07B681B6923F0C6
:10291C0001027B681A6100BF1437BD4680BC70474A
:10292C00002C01400004004080B487B000AFF86078
:10293C00B9607A60FB681B6A7B61FB681B6A23F0D9
:10294C000102FB681A62FB689B693B613B6923F0DF
:10295C00F0033B617B681B013A6913433B617B6964
:10296C0023F00A037B617A69BB6813437B61FB68C4
:10297C003A699A61FB687A691A6200BF1C37BD46D6
:10298C0080BC704780B487B000AFF860B9607A60E3
:10299C00FB681B6A7B61FB681B6A23F01002FB68F7
:1029AC001A62FB689B693B613B6923F470433B6192
:1029BC007B681B033A6913433B617B6923F0A003DB
:1029CC007B61BB681B017A6913437B61FB683A69C5
:1029DC009A61FB687A691A6200BF1C37BD4680BCDD
:1029EC00704780B485B000AF786039607B689B68B5
:1029FC00FB60FB6823F07003FB603A68FB681343D1
:102A0C0043F00703FB607B68FA689A6000BF1437D9
:102A1C00BD4680BC704780B487B000AFF860B96029
:102A2C007A603B60FB689B687B617B6923F47F4326
:102A3C007B613B681A027B681A43BB6813437A6953
:102A4C0013437B61FB687A699A6000BF1C37BD46F3
:102A5C0080BC704780B485B000AF786039607B680B
:102A6C0093F83C30012B01D1022341E07B68012219
:102A7C0083F83C207B68022283F83D207B681B682E
:102A8C005B68FB607B681B689B68BB60FB6823F022
:102A9C007003FB603B681B68FA681343FB607B6840
:102AAC001B68FA685A607B681B68144A934209D009
:102ABC007B681B68B3F1804F04D07B681B68104A9D
:102ACC0093420CD1BB6823F08003BB603B685B680E
:102ADC00BA681343BB607B681B68BA689A607B68F2
:102AEC00012283F83D207B68002283F83C200023E0
:102AFC0018461437BD4680BC704700BF002C0140FF
:102B0C000004004080B483B000AF786000BF0C3785
:102B1C00BD4680BC704780B483B000AF786000BF06
:102B2C000C37BD4680BC704770B500260C4D0D4C63
:102B3C00641BA410A64209D100F022F800260A4D0D
:102B4C000A4C641BA410A64205D170BD55F8043B79
:102B5C0098470136EEE755F8043B98470136F2E703
:102B6C00D42B0008D42B0008D42B0008D82B000839
:102B7C0003460244934200D1704703F8011BF9E766
:102B8C00F8B500BFF8BC08BC9E467047F8B500BF4E
:082B9C00F8BC08BC9E4670471E
:102BA400C0F9A4B0999282F880900000000000005F
:102BB40000000000010203040607080902030405DB
:102BC400060708090A0B0C0D0E0F10100102000075
:042BD40031010008C3
:042BD8000D010008E3
:102BDC0001000000010000000200000003000000E2
:102BEC0004000000000400000008000000100000B9
:102BFC000020000000127A00050000000200000016
:0C2C0C00030000001000000001000000A8
:0400000508001515C5
:00000001FF
